:020000040800F2
:10000000200900202D0200080F550008290C0008C7
:100010000B5500085909000837610008000000006E
:10002000000000000000000000000000F956000879
:100030005D09000800000000C15500080D580008C7
:10004000470200084702000847020008470200086C
:10005000470200084702000847020008470200085C
:10006000470200084702000847020008470200084C
:10007000470200084702000847020008470200083C
:10008000470200084702000847020008470200082C
:10009000470200084702000847020008470200081C
:1000A000470200084702000847020008470200080C
:1000B0004702000891590008655A000847020008E5
:1000C00047020008470200084702000847020008EC
:1000D00047020008155F00084702000847020008B1
:1000E00047020008470200084702000847020008CC
:1000F00047020008470200084702000847020008BC
:1001000047020008470200084702000847020008AB
:10011000470200084702000847020008470200089B
:10012000470200084702000847020008470200088B
:1001300000F002F800F06BF80AA090E8000C82448E
:100140008344AAF10107DA4501D100F060F8AFF26B
:10015000090EBAE80F0013F0010F18BFFB1A43F0A5
:100160000103184778CC000098CC00000A444FF0F7
:10017000000C10F8013B13F0070408BF10F8014B06
:100180001D1108BF10F8015B641E05D010F8016B4B
:10019000641E01F8016BF9D113F0080F1EBF10F8AF
:1001A000014BAD1C0C1B09D16D1E58BF01F801CBD2
:1001B000FAD505E014F8016B01F8016B6D1EF9D555
:1001C0009142D6D37047000000230024002500266A
:1001D000103A28BF78C1FBD8520728BF30C148BFAA
:1001E0000B607047642900F0C380752900F0C0805F
:1001F000782900F0F980632900F0F882732900F073
:10020000FD82002070471FB51FBD10B510BD00F066
:1002100075FB1146FFF7F7FF07F0B2F800F093FB0C
:1002200003B4FFF7F2FF03BC05F08EFF09488047D7
:1002300009480047FEE7FEE7FEE7FEE7FEE7FEE7C8
:10024000FEE7FEE7FEE7FEE704480549054A064BE0
:1002500070470000115800083101000820030020F9
:10026000200900202005002020050020704710B53F
:100270004C1084EA530404D54042C1F1000138BF58
:10028000491E1B4204D55242C3F1000338BF5B1E16
:1002900000F0D2F914F0804F04D04042C1F10001C7
:1002A00038BF491E14F0004F04D05242C3F100037E
:1002B00038BF5B1E10BD00000FB4044910B503AA7F
:1002C000029800F09FFA10BC5DF814FB5400002067
:1002D00070B5044685690068C10601D5302600E086
:1002E0002026C00707D070BDD4E9012130469047D1
:1002F000206A401C20626D1EF6D570BD70B50446A4
:1003000085690078C00707D170BDD4E9012120209C
:100310009047206A401C20626D1EF6D570BD70B5F6
:100320000C460546012A05D02878800600D5EA69E2
:10033000002302E0012305E05B1C934202D2E05C53
:100340000028F9D1A869E618C01AA861286A1844DB
:1003500028622846FFF7BCFF04E0D5E9012114F824
:10036000010B9047B442F8D32846FFF7C7FF70BD92
:100370002DE9F0410646002410687529314616A57E
:1003800010D0AFF30080002802DA404213A507E046
:1003900031688A0701D512A502E0490704D511A5E5
:1003A000012401E0AFF3008000210A2206F12407B6
:1003B00009E0B0FBF2FCB0FBF2F302FB1C003030B2
:1003C00078541846491C0028F3D123462A46304663
:1003D000BDE8F04100F0A7B9000000002D000000CA
:1003E0002B0000002000000070B504460D46214699
:1003F0001068AFF300802188090502D50F4A7A44BE
:1004000002E00E4A7A440E32002104F1240305E092
:1004100000F00F060009965D5E54491C0028F7D1D4
:1004200020780023000704D5702D02D009B10223E3
:1004300011322046BDE8704000F075B95CC800007C
:100440002DE9F05F894604464FF0000ADFF874B1E9
:10045000FB44C0F820A02046E1688847002874D0FB
:10046000252806D0D4E901219047206A401C20624B
:10047000F1E700265F462046E168884720280546C8
:1004800007DB312D05D2781910F8200C08B106438E
:10049000F1E7B00701D526F00406C4F81CA0002738
:1004A000C4F818A02A2D09D0284605F046FE38B316
:1004B00004EB8708303DC8F8185019E059F8041BC0
:1004C000204604EB87029161E1688847012F0546C9
:1004D00018D1E069002820DA26F020061DE0D8F8BF
:1004E000180000EB800005EB40003038C8F8180019
:1004F0002046E1688847054605F01FFE0028EED13A
:10050000012F0AD02E2D08D12046E16888477F1C94
:100510000546022F46F02006C4DBA069002803DA56
:10052000404246F00106A061F00701D026F0100617
:100530006C2D0BD0682D09D04C2D39D06A2D35D0BB
:10054000742D35D07A2D33D016E038E0E1682F468F
:1005500020468847B842054609D16C2F26D04FF473
:100560008060E168064320468847054604E06C2F1A
:100570001AD04FF4807006430DB3A5F1410019283D
:1005800002D8203546F400664A46294620462660B1
:100590004E46FFF727FE80B101280BD0F61D26F04E
:1005A000070000F1080956E74020E4E78020D8E77B
:1005B0000020D6E706F104094DE7284652E7206AF5
:1005C000BDE8F09F32C8000040EA010310B59B0768
:1005D0000FD1042A0DD310C808C9121F9C42F8D0AD
:1005E00020BA19BA884201D9012010BD4FF0FF305E
:1005F00010BD1AB1D30703D0521C07E0002010BD74
:1006000010F8013B11F8014B1B1B07D110F8013BFF
:1006100011F8014B1B1B01D1921EF1D1184610BDE0
:1006200002F0FF0343EA032242EA024200F0FEB86E
:10063000704770477047704753EA020C00F06980BA
:100640002DE9F04B4FF00006002B1FBFB3FA83F5E6
:1006500003FA05F424FA05F65E4012BF1643B2FA17
:1006600082F502FA05F4C5F120051EBF22FA05FC49
:1006700044EA0C04203556EA044C4FEA144418BFEF
:10068000641C4FF000084FF00009904271EB030C1E
:1006900039D3002919BFB1FA81F701FA07F6B0FA88
:1006A00080F700FA07F6C7F120071EBF20FA07FC03
:1006B00046EA0C062037B6FBF4FCA7EB0507103F13
:1006C00007F01F0BCBF120060CFA0BFB2CFA06F6F9
:1006D00044BFB3460026202FA4BF5E464FF0000B58
:1006E0005BEA060C08BF4FF0010B19EB0B09ABFBE3
:1006F000027C48EB0608C01B06FB02CC0BFB03CCBC
:1007000071EB0C01C1E70B46024641464846BDE885
:10071000F08B13B54FF000004FF00001AFF30080F5
:10072000BDE81C4070472DE9F0470D4699469246BA
:10073000044600F124080168880604D5E06921F028
:100740001001216000E00120A84201DD471B00E00C
:100750000027A1697A1902EB0900081AA061207824
:10076000C00602D42046FFF7B3FD002608E0D4E916
:1007700001211AF806009047206A401C761C20626E
:100780004E45F4DB2078C0060AD52046FFF7A0FDD1
:1007900006E0D4E9012130209047206A401C206205
:1007A000381EA7F10107F4DC07E0D4E9012118F8AD
:1007B00005009047206A401C2062281EA5F1010513
:1007C000F3DC2046FFF79AFD2078000602D50220D0
:1007D000BDE8F0870120FBE710B5436913B1AFF323
:1007E000008001E0FFF79BFD012010BD127800F1B1
:1007F00024010A7000224A700122EDE711684FF0CF
:10080000FF32E9E7074B70B50D467B4400F033F843
:100810000446284600F042F810B14FF0FF3070BD9A
:10082000204670BDAB6400004FF000020429C0F008
:10083000128010F0030C00F03780CCF1040CBCF1F6
:10084000020F18BF00F8012BA8BF20F8022BA1EB64
:100850000C0100F029B85FEAC17C24BF00F8012B2D
:1008600000F8012B48BF00F8012B704701694A1CB2
:1008700002610878704700B58FB0CDE901310021E1
:10088000059105497944CDE9031011466846FFF703
:10089000D7FD0FB000BD0000E5FFFFFF007B00F0BB
:1008A000800070474FF0000200B51346944696460C
:1008B000203922BFA0E80C50A0E80C50B1F1200173
:1008C000BFF4F7AF090728BFA0E80C5048BF0CC021
:1008D0005DF804EB890028BF40F8042B08BF70477F
:1008E00048BF20F8022B11F0804F18BF00F8012BF1
:1008F0007047000000487047BC0200207546FFF7B3
:10090000F9FFAE4605006946534620F007008546CC
:1009100018B020B5FFF798FCBDE820404FF0000666
:100920004FF000074FF000084FF0000B21F00701D7
:10093000AC46ACE8C009ACE8C009ACE8C009ACE81A
:10094000C0098D46704710B50446AFF300802046BD
:10095000BDE81040FFF764BC00BFFEE77047000031
:1009600051B18200A2F1C042126842F0010382003C
:10097000A2F1C042136009E08200A2F1C0421268F5
:10098000034B1A408300A3F1C0431A607047000074
:10099000FEFF0F00D0E901121143C2681143026942
:1009A00011434269114382691143C2691143026ACA
:1009B0001143426A1143826A1143C26A1143026BB6
:1009C000114302689200A2F1C042116081680829B7
:1009D0000BD101688900A1F1C041096841F04002D2
:1009E00001688900A1F1C0410A60416B0968426B4E
:1009F000526841EA0211426B926841EA0221426B5D
:100A0000928941EA0241426B128A41EA0251426BE9
:100A1000127D41EA0261426B926911430268521CE5
:100A20009200A2F1C0421160C16AB1F5804F1BD1A2
:100A3000816B0968826B526841EA0211826B92688D
:100A400041EA0221826B128A41EA0251826B127DD5
:100A500041EA0261826B9269114302689200A2F13D
:100A6000C042C2F8041107E06FF0704201688900CB
:100A7000A1F1C041C1F8042170472DE9F0410246BF
:100A800000250026002000230024002791F803C041
:100A90000CF00F0591F803C00CF0100CBCF1000F26
:100AA00003D091F802C04CEA050591F800C0BCF1F2
:100AB000000F31D0146800202BE04FF0010C0CFA2D
:100AC00000F3B1F800C00CEA03069E4220D1830077
:100AD0004FF00F0C0CFA03F7BC4305FA03FC4CEA89
:100AE000040491F803C0BCF1280F06D14FF0010CAB
:100AF0000CFA00FCC2F814C00AE091F803C0BCF183
:100B0000480F05D14FF0010C0CFA00FCC2F810C0E0
:100B1000401C0828D1D31460B1F800C0BCF1FF0F0D
:100B200034DD546800202EE000F1080C4FF001087D
:100B300008FA0CF3B1F800C00CEA03069E4221D17A
:100B400083004FF00F0C0CFA03F7BC4305FA03FCCB
:100B50004CEA040491F803C0BCF1280F05D100F160
:100B6000080C08FA0CF8C2F8148091F803C0BCF124
:100B7000480F07D100F1080C4FF0010808FA0CF8F3
:100B8000C2F81080401C0828CED35460BDE8F08124
:100B9000F0B50A46002300240021002500F000469D
:100BA000B6F1004F02D11D4EF16901E01B4E716894
:100BB000C0F3034583B200F44016B6F5401F08D1D8
:100BC00021F07061154E766826F07066134F7E60D6
:100BD00012E000F48016B6F5801F06D1032606FA4F
:100BE00005F4A14341F0706106E0460D360103FAB9
:100BF00006F6B14341F0706122B1460D360103FAA9
:100C000006F6314300F00046B6F1004F02D1034E24
:100C1000F16101E0014E7160F0BD00000000014093
:100C2000416170470161704700BFFEE708B50121CF
:100C3000442004F0E7FC1820ADF8000048208DF8AF
:100C4000030069460648FFF718FF0120ADF80000D1
:100C500028208DF8030069460248FFF70EFF08BD03
:100C6000001801400008014070B5044600261748EE
:100C70000588408845431548808846F60401884227
:100C800016D112488079012812D100200F498871AD
:100C90002A2048812B2088810021084603F082FF0A
:100CA00001200A4988712B2048812A20888103E08D
:100CB0000021084603F076FF04F01CF9002602E04C
:100CC00003480480761CAE42FAD370BDD4010020E4
:100CD0000008006C10B50446002C66D16C49887180
:100CE000F02008804FF4A07048800846808849F2C0
:100CF000413188420BD06648808846F6040188421C
:100D000005D06348808845F2103188421AD12C20E2
:100D10005F4908812A2048812B20888108468088E5
:100D200046F60401884205D05948808845F21031C2
:100D3000884206D14FF4A070554908804FF4F070F6
:100D40004880A1E05248808845F21051884210D175
:100D50004FF430504E4908814FF4285048814FF4E9
:100D60002C5088814FF4F07008804FF44870488010
:100D70008AE04748808841F6631188420DD12C20D3
:100D8000434908812B2048812A2088814FF4F07044
:100D900008804FF44870488076E022203C49088162
:100DA00020204881212088816EE001203849887107
:100DB0004FF4A0700880F02048800846808849F2EF
:100DC0004131884205D03248808845F2103188424E
:100DD00007D12C202E4908812A2048812B20888188
:100DE0003FE02B48808846F60401884207D12C203A
:100DF000274908812B2048812A20888131E0244816
:100E0000808845F21051884210D14FF4305020496B
:100E100008814FF4285048814FF42C5088814FF4BA
:100E2000487008804FF4F07048801AE018488088B5
:100E300041F6631188420DD12C20154908812A20E2
:100E400048812B2088814FF4487008804FF4F0705F
:100E5000488006E022200E49088121204881202078
:100E600088810B48808846F60401884205D00848EE
:100E7000808845F21031884206D14FF4F070044961
:100E800008804FF4A0704880002003F015FD10BDCD
:100E9000D401002030B503460C4615465A488088D8
:100EA00049F24131884205D05748808845F21031D7
:100EB000884214D15449488904F016F8181204F0F5
:100EC0000DF8D8B204F00AF84F49888904F00CF8FC
:100ED000201204F003F8E0B204F000F88CE04A4875
:100EE000808845F21051884220D14749488903F053
:100EF000FBFF181203F0F2FF43494989491C88B2ED
:100F000003F0F2FFD8B203F0E9FF3F49888903F00C
:100F1000EBFF201203F0E2FF3B498989491C88B2AC
:100F200003F0E2FFE0B203F0D9FF65E036488088C5
:100F300041F66311884228D13348807920B932487C
:100F40000088401EC01A83B22F49488903F0CCFFA5
:100F5000181203F0C3FFD8B203F0C0FF181203F059
:100F6000BDFFD8B203F0BAFF2749888903F0BCFF60
:100F7000201203F0B3FFE0B203F0B0FF201203F041
:100F8000ADFFE0B203F0AAFF36E01F48808846F6C6
:100F9000040188421DD11C488079012804D11A48D7
:100FA0000088401EC01A83B21749488903F09CFF8D
:100FB000181203F093FFD8B203F090FF124988890A
:100FC00003F092FF201203F089FFE0B203F086FFE6
:100FD00012E00D488079012804D10B480088401E9A
:100FE000C01A83B208494889194603F08DFF0649A3
:100FF0008889214603F088FF034800890349088057
:10100000881C058030BD0000D4010020FE07006C64
:101010002DE9FC4F05460E4617469846DDF82C9004
:10102000002001902748808846F60401884229D193
:1010300024488079012825D1AB46354621480088CF
:10104000C01B401E86B247461E480088A0EB0B001E
:10105000401E1FFA80F800201A4988712A20488112
:101060002B20888143463A4631462846CDF80090E9
:10107000FFF7CEFF0120134988712B2048812A20D9
:1010800088811CE0781B401C80B20190344614E03B
:101090002146284603F086FD03F02CFF4FF0000A9E
:1010A00006E00948A0F800900AF101001FFA80FA52
:1010B00001988245F5DB601C84B24445E8DDBDE85B
:1010C000FC8F0000D40100200008006C00B59FB028
:1010D0000121080204F076FA01214FF4B47004F003
:1010E00091FA0120ADF8780010208DF87B000320E4
:1010F0008DF87A001EA9FE48FFF7BFFC4CF2337052
:10110000ADF8780018208DF87B0003208DF87A0068
:101110001EA9F848FFF7B1FC4FF68070ADF87800D3
:1011200018208DF87B0003208DF87A001EA9F24864
:10113000FFF7A3FC41F20100ADF8780018208DF80C
:101140007B0003208DF87A001EA9EC48FFF795FC80
:1011500001200890002009900F200A9000200B9099
:101160000C900D900E9001900290032003900020AF
:10117000049005900690079006200F900020109094
:10118000119010201290002013901590149016903A
:1011900017904FF480501890002019904FF4804021
:1011A0001A9000201B9008A81C9001A81D900FA861
:1011B000FFF7F0FB01210620FFF7D2FB322005F0FC
:1011C0003BF8002003F042FBCD4988800846808828
:1011D000FF280ADB084680884FF6FF71884204D05A
:1011E000C7488088B0F5134F7ED1D32003F07CFE32
:1011F00003F022FBC249888003F01EFBC0498880AF
:1012000003F01AFBBE498880084680884FF6FF71BC
:1012100001EA0020BA49888003F00EFBB8498988AA
:101220000843B74988800846808849F2413188429E
:101230005AD0BF2003F058FE03F0FEFAB049888070
:1012400003F0FAFAAE49888003F0F6FAAC498880D8
:1012500003F0F2FAAA498880084680884FF6FF71A9
:1012600001EA0020A649888003F0E6FAA4498988AB
:101270000843A34988800846808846F604018842CE
:101280007AD0D42003F030FE03F0D6FA9C4988804F
:1012900003F0D2FA9A49888003F0CEFA9849888000
:1012A000084680884FF6FF7101EA00209449888043
:1012B00003F0C2FA92498988084391498880084618
:1012C000808845F21031884256D04FF45A4003F0DE
:1012D0000BFE03F0B1FA8A4988804FF45B4003F0BB
:1012E00003FE03F0A9FA00E046E08549888008463D
:1012F00080884FF6FF7101EA0020814988804FF411
:101300005C4003F0F1FD03F097FA7D4989880843BA
:101310007B49888008468088B0F5004F02D145F2AD
:10132000105088807648808845F21051884223D03A
:10133000A12003F0D9FD03F07FFA7149888003F002
:101340007BFA6F498880084680884FF6FF7101EA72
:1013500000206B49888003F06FFA69498988084347
:10136000674988800846808845F26171884203D1C8
:1013700041F66310624988806148818861A0FEF768
:101380009BFF5F48808849F2413188427ED1CF205F
:1013900003F0AAFD002003F0A1FDC12003F09EFD93
:1013A000302003F09BFDED2003F09EFD642003F050
:1013B00095FD032003F092FD122003F08FFD8120A4
:1013C00003F08CFDE82003F08FFD852003F086FDFF
:1013D000102003F083FD7A2003F080FDCB2003F082
:1013E00083FD392003F07AFD2C2003F077FD0020E7
:1013F00003F074FD342003F071FD022003F06EFD54
:10140000F72003F071FD202003F068FDEA2003F0CF
:101410006BFD002003F062FD002003F05FFDC020A3
:1014200003F062FD1B2003F059FDC12003F05CFDB9
:10143000012003F053FDC52003F056FD302003F0DA
:101440004DFD302003F04AFDC72003F04DFDB720CD
:1014500003F044FD362003F047FD482003F03EFD35
:101460003A2003F041FD552003F038FDB12003F090
:101470003BFD002003F032FD1A2003F02FFDB620C3
:1014800003F032FD0A2003F029FD00E0AAE0A220CB
:1014900003F024FDF22003F027FD002003F01EFDE1
:1014A000262003F021FD012003F018FDE02003F0C9
:1014B0001BFD0F2003F012FD2A2003F00FFD282052
:1014C00003F00CFD082003F009FD0E2003F006FDDB
:1014D000082003F003FD542003F000FDA92003F0D1
:1014E000FDFC432003F0FAFC0A2003F0F7FC11E0B6
:1014F000000C014000140140001801400020014090
:10150000D4010020204C43442049443A25780D0A58
:10151000000000000F2003F0E1FC002003F0DEFCDF
:10152000002003F0DBFC002003F0D8FC002003F0D7
:10153000D5FCE12003F0D8FC002003F0CFFC1520FF
:1015400003F0CCFC172003F0C9FC072003F0C6FC15
:10155000112003F0C3FC062003F0C0FC2B2003F095
:10156000BDFC562003F0BAFC3C2003F0B7FC05207C
:1015700003F0B4FC102003F0B1FC0F2003F0AEFC2C
:101580003F2003F0ABFC3F2003F0A8FC0F2003F04A
:10159000A5FC2B2003F0A8FC002003F09FFC0020FA
:1015A00003F09CFC012003F099FC3F2003F096FC23
:1015B0002A2003F099FC002003F090FC002003F0A7
:1015C0008DFC002003F08AFCEF2003F087FC112043
:1015D00003F08AFC782004F02FFE292003F084FC1D
:1015E00003F01AB9FE48808846F6040188427CD18F
:1015F000112003F079FC142004F01EFED02003F02B
:1016000073FC072003F06AFC422003F067FC1D20F6
:1016100003F064FCD12003F067FC002003F05EFCC3
:101620001A2003F05BFC092003F058FCD22003F0E1
:101630005BFC012003F052FC222003F04FFCC02091
:1016400003F052FC102003F049FC3B2003F046FC61
:10165000002003F043FC022003F040FC112003F0C3
:101660003DFCC52003F040FC032003F037FCC820FC
:1016700003F03AFC002003F031FC252003F02EFC9F
:10168000212003F02BFC052003F028FC002003F0B0
:1016900025FC0A2003F022FC652003F01FFC252016
:1016A00003F01CFC772003F019FC502003F016FC1B
:1016B0000F2003F013FC002003F010FCF82003F0CF
:1016C00013FC012003F00AFCFE2003F00DFC0020B7
:1016D00003F004FC022003F001FC202003F004FCD2
:1016E000362003F001FC082000E02CE003F0F6FBBC
:1016F0003A2003F0F9FB552003F0F0FB2B2003F018
:10170000F3FB002003F0EAFB002003F0E7FB0120DD
:1017100003F0E4FB3F2003F0E1FB2A2003F0E4FBAD
:10172000002003F0DBFB002003F0D8FB012003F0D6
:10173000D5FBDF2003F0D2FB782004F07DFD2920CB
:1017400003F0D2FB4CE7A648808845F2103188426E
:1017500040F07C87ED2003F0C7FB012003F0BEFBC7
:10176000FE2003F0BBFBEE2003F0BEFBDE2003F007
:10177000B5FB212003F0B2FBF12003F0B5FB012003
:1017800003F0ACFBDF2003F0AFFB102003F0A6FB5F
:10179000C42003F0A9FB8F2003F0A0FBC62003F0B8
:1017A000A3FB002003F09AFBE22003F097FBE2206A
:1017B00003F094FBE22003F091FBBF2003F094FBC5
:1017C000AA2003F08BFBB02003F08EFB0D2003F06A
:1017D00085FB002003F082FB0D2003F07FFB00203F
:1017E00003F07CFB112003F079FB002003F076FB73
:1017F000192003F073FB002003F070FB212003F09D
:101800006DFB002003F06AFB2D2003F067FB002036
:1018100003F064FB3D2003F061FB002003F05EFB5E
:101820005D2003F05BFB002003F058FB5D2003F01C
:1018300055FB002003F052FBB12003F055FB802044
:1018400003F04CFB002003F049FB8B2003F046FB28
:10185000002003F043FB962003F040FB002003F040
:101860003DFBB22003F040FB002003F037FB0020DB
:1018700003F034FB022003F031FB002003F02EFBC9
:10188000032003F02BFB002003F028FBB32003F020
:101890002BFB002003F022FB002003F01FFB0020A5
:1018A00003F01CFB002003F019FB002003F016FBE3
:1018B000002003F013FB002003F010FB002003F0D6
:1018C0000DFB002003F00AFB002003F007FB0020C3
:1018D00003F004FB002003F001FB002003F0FEFAFC
:1018E000002003F0FBFA002003F0F8FA002003F0D8
:1018F000F5FA002003F0F2FA002003F0EFFA0020DE
:1019000003F0ECFA002003F0E9FA002003F0E6FA15
:10191000002003F0E3FA002003F0E0FA002003F0D7
:10192000DDFAB42003F0E0FA8B2003F0D7FA0020B0
:1019300003F0D4FA962003F0D1FA002003F0CEFA97
:10194000A12003F0CBFA002003F0C8FAB52003F081
:10195000CBFA022003F0C2FA002003F0BFFA032002
:1019600003F0BCFA002003F0B9FA042003F0B6FA41
:10197000002003F0B3FAB62003F0B6FA002003F01B
:10198000ADFA002003F0AAFAB72003F0ADFA002068
:1019900003F0A4FA002003F0A1FA3F2003F09EFA1E
:1019A000002003F09BFA5E2003F098FA002003F079
:1019B00095FA642003F092FA002003F08FFA8C204D
:1019C00003F08CFA002003F089FAAC2003F086FAC9
:1019D000002003F083FADC2003F080FA002001E00D
:1019E000D401002003F07AFA702003F077FA002087
:1019F00003F074FA902003F071FA002003F06EFAFD
:101A0000EB2003F06BFA002003F068FADC2003F00F
:101A100065FA002003F062FAB82003F065FA0020AE
:101A200003F05CFA002003F059FA002003F056FAA4
:101A3000002003F053FA002003F050FA002003F0D6
:101A40004DFA002003F04AFA002003F047FABA20CA
:101A500003F04AFA242003F041FA002003F03EFA92
:101A6000002003F03BFA002003F038FAC12003F015
:101A70003BFA202003F032FA002003F02FFA542022
:101A800003F02CFA002003F029FAFF2003F026FAD5
:101A9000002003F023FAC22003F026FA0A2003F004
:101AA0001DFA002003F01AFA042003F017FA0020B0
:101AB00003F014FAC32003F017FA3C2003F00EFAE7
:101AC000002003F00BFA3A2003F008FA002003F09C
:101AD00005FA392003F002FA002003F0FFF937205D
:101AE00003F0FCF9002003F0F9F93C2003F0F6F9CB
:101AF000002003F0F3F9362003F0F0F9002003F0A2
:101B0000EDF9322003F0EAF9002003F0E7F92F2085
:101B100003F0E4F9002003F0E1F92C2003F0DEF9F2
:101B2000002003F0DBF9292003F0D8F9002003F0AE
:101B3000D5F9262003F0D2F9002003F0CFF92420B4
:101B400003F0CCF9002003F0C9F9242003F0C6F912
:101B5000002003F0C3F9232003F0C0F9002003F0B4
:101B6000BDF93C2003F0BAF9002003F0B7F93620A4
:101B700003F0B4F9002003F0B1F9322003F0AEF91C
:101B8000002003F0ABF92F2003F0A8F9002003F0A8
:101B9000A5F92C2003F0A2F9002003F09FF92920D9
:101BA00003F09CF9002003F099F9262003F096F940
:101BB000002003F093F9242003F090F9002003F0B3
:101BC0008DF9242003F08AF9002003F087F92320FF
:101BD00003F084F9002003F081F9C42003F084F9B4
:101BE000622003F07BF9002003F078F9052003F070
:101BF00075F9002003F072F9842003F06FF90020DA
:101C000003F06CF9F02003F069F9002003F066F9A5
:101C1000182003F063F9002003F060F9A42003F01A
:101C20005DF9002003F05AF9182003F057F900205D
:101C300003F054F9502003F051F9002003F04EF95D
:101C40000C2003F04BF9002003F048F9172003F0B3
:101C500045F9002003F042F9952003F03FF90020F8
:101C600003F03CF9F32003F039F9002003F036F9D2
:101C7000E62003F033F9002003F030F9C52003F02B
:101C800033F9322003F02AF9002003F027F9442029
:101C900003F024F9002003F021F9652003F01EF978
:101CA000002003F01BF9762003F018F9002003F060
:101CB00015F9882003F012F9002003F00FF9C6206F
:101CC00003F012F9202003F009F9002003F006F9CF
:101CD000172003F003F9002003F000F9012003F0BE
:101CE000FDF8002003F0FAF8C72003F0FDF800200B
:101CF00003F0F4F8002003F0F1F8002003F0EEF810
:101D0000002003F0EBF8C82003F0EEF8002003F009
:101D1000E5F8002003F0E2F8002003F0DFF80020EF
:101D200003F0DCF8C92003F0DFF8002003F0D6F858
:101D3000002003F0D3F8002003F0D0F8002003F0D7
:101D4000CDF8002003F0CAF8002003F0C7F8002007
:101D500003F0C4F8002003F0C1F8002003F0BEF83F
:101D6000002003F0BBF8002003F0B8F8002003F0D7
:101D7000B5F8002003F0B2F8002003F0AFF800201F
:101D800003F0ACF8002003F0A9F8E02003F0ACF871
:101D9000162003F0A3F8002003F0A0F81C2003F0A5
:101DA0009DF8002003F09AF8212003F097F8002016
:101DB00003F094F8362003F091F8002003F08EF839
:101DC000462003F08BF8002003F088F8522003F03F
:101DD00085F8002003F082F8642003F07FF80020EB
:101DE00003F07CF87A2003F079F8002003F076F80D
:101DF0008B2003F073F8002003F070F8992003F0B3
:101E00006DF8002003F06AF8A82003F067F80020BE
:101E100003F064F8B92003F061F8002003F05EF8E5
:101E2000C42003F05BF8002003F058F8CA2003F048
:101E300055F8002003F052F8D22003F04FF80020AC
:101E400003F04CF8D92003F049F8002003F046F8DD
:101E5000E02003F043F8002003F040F8F32003F003
:101E60003DF8002003F03AF8E12003F03DF8162099
:101E700003F034F8002003F031F81C2003F02EF8B2
:101E8000002003F02BF8222003F028F8002003F0B4
:101E900025F8362003F022F8002003F01FF8452033
:101EA00003F01CF8002003F019F8522003F016F894
:101EB000002003F013F8642003F010F8002003F072
:101EC0000DF87A2003F00AF8002003F007F88B20C1
:101ED00003F004F8002003F001F8992002F0FEFF5F
:101EE000002002F0FBFFA82002F0F8FF002002F023
:101EF000F5FFB92002F0F2FF002002F0EFFFC4204E
:101F000002F0ECFF002002F0E9FFCA2002F0E6FF39
:101F1000002002F0E3FFD22002F0E0FF002002F0F8
:101F2000DDFFD82002F0DAFF002002F0D7FFE0202A
:101F300002F0D4FF002002F0D1FFF32002F0CEFF28
:101F4000002002F0CBFFE22002F0CEFF052002F0DD
:101F5000C5FF002002F0C2FF0B2002F0BFFF0020EF
:101F600002F0BCFF1B2002F0B9FF002002F0B6FF18
:101F7000342002F0B3FF002002F0B0FF442002F052
:101F8000ADFF002002F0AAFF4F2002F0A7FF0020C3
:101F900002F0A4FF612002F0A1FF002002F09EFFEA
:101FA000792002F09BFF002002F098FF882002F0C9
:101FB00095FF002002F092FF972002F08FFF002093
:101FC00002F08CFFA62002F089FF002002F086FFBD
:101FD000B72002F083FF002002F080FFC22002F051
:101FE0007DFF002002F07AFFC72002F077FF00207B
:101FF00002F074FFD12002F071FF002002F06EFFAA
:10200000D62002F06BFF002002F068FFDD2002F016
:1020100065FF002002F062FFF32002F05FFF002066
:1020200002F05CFFE32002F05FFF052002F056FFA4
:10203000002002F053FF0A2002F050FF002002F0BF
:102040004DFF1C2002F04AFF002002F047FF332022
:1020500002F044FF002002F041FF442002F03EFF66
:10206000002002F03BFF502002F038FF002002F079
:1020700035FF622002F032FF002002F02FFF7820AF
:1020800002F02CFF002002F029FF882002F026FF3A
:10209000002002F023FF972002F020FF002002F032
:1020A0001DFFA62002F01AFF002002F017FFB72044
:1020B00002F014FF002002F011FFC22002F00EFF18
:1020C000002002F00BFFC72002F008FF002002F002
:1020D00005FFD12002F002FF002002F0FFFED52014
:1020E00002F0FCFE002002F0F9FEDD2002F0F6FE18
:1020F000002002F0F3FEF32002F0F0FE002002F0D8
:10210000EDFEE42002F0F0FE012002F0E7FE0020E8
:1021100002F0E4FE012002F0E1FE002002F0DEFE0B
:10212000022002F0DBFE002002F0D8FE2A2002F09E
:10213000D5FE002002F0D2FE3C2002F0CFFE0020AF
:1021400002F0CCFE4B2002F0C9FE002002F0C6FED9
:102150005D2002F0C3FE002002F0C0FE742002F0F9
:10216000BDFE002002F0BAFE842002F0B7FE00207F
:1021700002F0B4FE932002F0B1FE002002F0AEFEA9
:10218000A22002F0ABFE002002F0A8FEB32002F075
:10219000A5FE002002F0A2FEBE2002F09FFE00205D
:1021A00002F09CFEC42002F099FE002002F096FE90
:1021B000CD2002F093FE002002F090FED32002F02A
:1021C0008DFE002002F08AFEDD2002F087FE002056
:1021D00002F084FEF32002F081FE002002F07EFE79
:1021E000E52002F081FE002002F078FE002002F0DF
:1021F00075FE002002F072FE002002F06FFE022049
:1022000002F06CFE002002F069FE292002F066FE5A
:10221000002002F063FE3C2002F060FE002002F08D
:102220005DFE4B2002F05AFE002002F057FE5D20BA
:1022300002F054FE002002F051FE742002F04EFE27
:10224000002002F04BFE842002F048FE002002F045
:1022500045FE932002F042FE002002F03FFEA22045
:1022600002F03CFE002002F039FEB32002F036FE00
:10227000002002F033FEBE2002F030FE002002F00B
:102280002DFEC42002F02AFE002002F027FECD2001
:1022900002F024FE002002F021FED32002F01EFEF8
:1022A000002002F01BFEDC2002F018FE002002F0ED
:1022B00015FEF32002F012FE002002F00FFEE620D1
:1022C00002F012FE112002F009FE002002F006FECC
:1022D000342002F003FE002002F000FE562002F03F
:1022E000FDFD002002F0FAFD762002F0F7FD00204F
:1022F00002F0F4FD772002F0F1FD002002F0EEFD87
:10230000662002F0EBFD002002F0E8FD882002F0DC
:10231000E5FD002002F0E2FD992002F0DFFD002043
:1023200002F0DCFDBB2002F0D9FD002002F0D6FD5A
:10233000992002F0D3FD002002F0D0FD662002F0CB
:10234000CDFD002002F0CAFD552002F0C7FD00209F
:1023500002F0C4FD552002F0C1FD002002F0BEFDD8
:10236000452002F0BBFD002002F0B8FD432002F042
:10237000B5FD002002F0B2FD442002F0AFFD0020C8
:1023800002F0ACFDE72002F0AFFD322002F0A6FD26
:10239000002002F0A3FD552002F0A0FD002002F075
:1023A0009DFD762002F09AFD002002F097FD662048
:1023B00002F094FD002002F091FD672002F08EFDF6
:1023C000002002F08BFD672002F088FD002002F063
:1023D00085FD872002F082FD002002F07FFD99201C
:1023E00002F07CFD002002F079FDBB2002F076FDBA
:1023F000002002F073FD992002F070FD002002F031
:102400006DFD772002F06AFD002002F067FD442098
:1024100002F064FD002002F061FD562002F05EFD36
:10242000002002F05BFD232002F058FD002002F0A6
:1024300055FD332002F052FD002002F04FFD4520F3
:1024400002F04CFD002002F049FDE82002F04CFDB6
:10245000002002F043FD002002F040FD992002F030
:102460003DFD002002F03AFD872002F037FD0020FC
:1024700002F034FD882002F031FD002002F02EFD34
:10248000772002F02BFD002002F028FD662002F0EC
:1024900025FD002002F022FD882002F01FFD002013
:1024A00002F01CFDAA2002F019FD002002F016FD2A
:1024B000BB2002F013FD002002F010FD992002F075
:1024C0000DFD002002F00AFD662002F007FD00204D
:1024D00002F004FD552002F001FD002002F0FEFC98
:1024E000552002F0FBFC002002F0F8FC442002F032
:1024F000F5FC002002F0F2FC442002F0EFFC00208A
:1025000002F0ECFC552002F0E9FC002002F0E6FCB1
:10251000E92002F0E9FCAA2002F0E0FC002002F031
:10252000DDFC002002F0DAFC002002F0D7FC0020E5
:1025300002F0DAFCAA2002F0D1FCCF2002F0D4FC99
:10254000002002F0CBFC002002F0C8FC002002F0CA
:10255000C5FC002002F0C2FC002002F0BFFC0020FD
:1025600002F0BCFC002002F0B9FC002002F0B6FC36
:10257000002002F0B3FC002002F0B0FC002002F0CA
:10258000ADFC002002F0AAFC002002F0A7FC002015
:1025900002F0A4FC002002F0A1FC002002F09EFC4E
:1025A000002002F09BFCF02002F09EFC002002F0D4
:1025B00095FC502002F092FC002002F08FFC0020DD
:1025C00002F08CFC002002F089FCF32002F08CFC6D
:1025D000002002F083FCF92002F086FC062002F0C5
:1025E0007DFC102002F07AFC292002F077FC00200C
:1025F00002F074FC3A2002F077FC552002F06EFCE9
:10260000112002F071FC642003F016FE292002F074
:102610006BFC352002F068FC002002F05FFC5120CA
:1026200002F062FCFF2002F059FC532002F05CFC37
:102630002C2002F053FC552002F056FC822002F0C0
:102640004DFC2C2002F050FC02F0E6B8FE488088D9
:1026500045F2105188427DD155214FF4704002F06F
:1026600053FCAA214FF2010002F04EFC52214FF21E
:10267000020002F049FC08214FF2030002F044FC82
:1026800001214FF2040002F03FFC0D214FF43040D5
:1026900002F03AFC0D214BF2010002F035FC0D2155
:1026A0004BF2020002F030FC34214FF4364002F0CD
:1026B0002BFC34214BF2016002F026FC34214BF25A
:1026C000026002F021FC0D214FF4314002F01CFCAD
:1026D0000D214BF2011002F017FC0D214BF20210FC
:1026E00002F012FC34214FF4374002F00DFC34218B
:1026F0004BF2017002F008FC34214BF2027002F040
:1027000003FC00214FF4324002F0FEFB00214BF2AB
:10271000012002F0F9FB00214BF2022002F0F4FB51
:1027200024214FF4384002F0EFFB24214BF6010046
:1027300002F0EAFB24214BF6020002F0E5FB012146
:102740004FF43F4002F0E0FB0F214FF4334002F022
:10275000DBFB00E0FDE30F214BF2013002F0D4FB84
:102760000F214BF2023002F0CFFB34214FF43940FD
:1027700002F0CAFB34214BF6011002F0C5FB3421F4
:102780004BF6021002F0C0FB08214FF4354002F076
:10279000BBFB08214BF2015002F0B6FB08214BF2C3
:1027A000025002F0B1FB03214FF4424002F0ACFBB7
:1027B00024214FF43A4002F0A7FB24214BF60120DC
:1027C00002F0A2FB24214BF6022002F09DFB002127
:1027D0004FF43C4002F098FB78214BF6014002F0A8
:1027E00093FB00214BF6024002F08EFB00214FF4D8
:1027F0003D4002F089FB78214BF6015002F084FB4A
:1028000000214BF6025002F07FFB00214FF43E40C6
:1028100002F07AFB64214BF6016002F075FB0021A7
:102820004FF4514002F070FB33214DF2011002F0E1
:102830006BFB00214DF2021002F066FB34214DF2D9
:10284000031002F061FB00214DF2041002F05CFB6A
:102850003A214DF2051002F057FB00214DF206100F
:1028600002F052FB4A214DF2071002F04DFB00210D
:102870004DF2081002F048FB5C214DF2091002F005
:1028800043FB00214DF20A1002F03EFB81214DF284
:102890000B1002F039FB00214DF20C1002F034FB5A
:1028A000A6214DF20D1002F02FFB00214DF20E106B
:1028B00002F02AFBE5214DF20F1002F025FB012169
:1028C0004DF2101002F020FB13214DF2111002F016
:1028D0001BFB01214DF2121002F016FB54214DF2A8
:1028E000131002F011FB01214DF2141002F00CFB49
:1028F00082214DF2151002F007FB01214DF2161056
:1029000002F002FBCA214DF2171002F0FDFA02217B
:102910004DF2181002F0F8FA00214DF2191002F0F1
:10292000F3FA02214DF21A1002F0EEFA01214DF2F3
:102930001B1002F0E9FA02214DF21C1002F0E4FA39
:1029400034214DF21D1002F0DFFA02214DF21E106B
:1029500002F0DAFA67214DF21F1002F0D5FA0221D7
:102960004DF2201002F0D0FA84214DF2211002F035
:10297000CBFA02214DF2221002F0C6FAA4214DF248
:10298000231002F0C1FA02214DF2241002F0BCFA29
:10299000B7214DF2251002F0B7FA02214DF22610B0
:1029A00002F0B2FACF214DF2271002F0ADFA022167
:1029B0004DF2281002F0A8FADE214DF2291002F0A3
:1029C000A3FA02214DF22A1002F09EFAF2214DF2F2
:1029D0002B1002F099FA02214DF22C1002F094FA19
:1029E000FE214DF22D1002F08FFA03214DF22E1030
:1029F00002F08AFA10214DF22F1002F085FA03211D
:102A00004DF2301002F080FA33214DF2311002F015
:102A10007BFA03214DF2321002F076FA6D214DF26D
:102A2000331002F071FA00214FF4524002F06CFAB8
:102A300033214DF2012002F067FA00214DF202200D
:102A400002F062FA342101E0D40100204DF20320AB
:102A500002F05AFA00214DF2042002F055FA3A2110
:102A60004DF2052002F050FA00214DF2062002F04E
:102A70004BFA4A214DF2072002F046FA00214DF2AE
:102A8000082002F041FA5C214DF2092002F03CFAE4
:102A900000214DF20A2002F037FA81214DF20B207D
:102AA00002F032FA00214DF20C2002F02DFAA6219C
:102AB0004DF20D2002F028FA00214DF20E2002F016
:102AC00023FAE5214DF20F2002F01EFA01214DF20A
:102AD000102002F019FA13214DF2112002F014FA1D
:102AE00001214DF2122002F00FFA54214DF2132071
:102AF00002F00AFA01214DF2142002F005FA8221B7
:102B00004DF2152002F000FA01214DF2162002F0DC
:102B1000FBF9CA214DF2172002F0F6F902214DF21D
:102B2000182002F0F1F900214DF2192002F0ECF921
:102B300002214DF21A2002F0E7F901214DF21B208B
:102B400002F0E2F902214DF21C2002F0DDF93421FD
:102B50004DF21D2002F0D8F902214DF21E2002F0A4
:102B6000D3F967214DF21F2002F0CEF902214DF278
:102B7000202002F0C9F984214DF2212002F0C4F98D
:102B800002214DF2222002F0BFF9A4214DF22320B0
:102B900002F0BAF902214DF2242002F0B5F9B72172
:102BA0004DF2252002F0B0F902214DF2262002F06C
:102BB000ABF9CF214DF2272002F0A6F902214DF208
:102BC000282002F0A1F9DE214DF2292002F09CF923
:102BD00002214DF22A2002F097F9F2214DF22B202A
:102BE00002F092F902214DF22C2002F08DF9FE2123
:102BF0004DF22D2002F088F903214DF22E2002F033
:102C000083F910214DF22F2002F07EF903214DF2BD
:102C1000302002F079F933214DF2312002F074F9BD
:102C200003214DF2322002F06FF96D214DF2332075
:102C300002F06AF900214FF4534002F065F93321A4
:102C40004DF2013002F060F900214DF2023002F045
:102C50005BF934214DF2033002F056F900214DF2B8
:102C6000043002F051F93A214DF2053002F04CF9EE
:102C700000214DF2063002F047F94A214DF20730AB
:102C800002F042F900214DF2083002F03DF95C21DA
:102C90004DF2093002F038F900214DF20A3002F00D
:102CA00033F981214DF20B3002F02EF900214DF263
:102CB0000C3002F029F9A6214DF20D3002F024F972
:102CC00000214DF20E3002F01FF9E5214DF20F30D8
:102CD00002F01AF901214DF2103002F015F913211A
:102CE0004DF2113002F010F901214DF2123002F0D4
:102CF0000BF954214DF2133002F006F901214DF287
:102D0000143002F001F982214DF2153002F0FCF886
:102D100001214DF2163002F0F7F8CA214DF21730BA
:102D200002F0F2F802214DF2183002F0EDF8002125
:102D30004DF2193002F0E8F802214DF21A3002F09B
:102D4000E3F801214DF21B3002F0DEF802214DF2D2
:102D50001C3002F0D9F834214DF21D3002F0D4F8C5
:102D600002214DF21E3002F0CFF867214DF21F30E4
:102D700002F0CAF802214DF2203002F0C5F8842199
:102D80004DF2213002F0C0F802214DF2223002F063
:102D9000BBF8A4214DF2233002F0B6F802214DF227
:102DA000243002F0B1F8B7214DF2253002F0ACF832
:102DB00002214DF2263002F0A7F8CF214DF2273044
:102DC00002F0A2F802214DF2283002F09DF8DE2137
:102DD0004DF2293002F098F802214DF22A3002F02B
:102DE00093F8F2214DF22B3002F08EF802214DF2D1
:102DF0002C3002F089F8FE214DF22D3002F084F8DB
:102E000003214DF22E3002F07FF810214DF22F30C9
:102E100002F07AF803214DF2303002F075F83321D8
:102E20004DF2313002F070F803214DF2323002F0F1
:102E30006BF86D214DF2333002F066F800214FF44B
:102E4000544002F061F833214DF2014002F05CF889
:102E500000214DF2024002F057F834214DF20340B8
:102E600002F052F800214DF2044002F04DF83A21F0
:102E70004DF2054002F048F800214DF2064002F004
:102E800043F84A214DF2074002F03EF800214DF28E
:102E9000084002F039F85C214DF2094002F034F8A4
:102EA00000214DF20A4002F02FF881214DF20B4033
:102EB00002F02AF800214DF20C4002F025F8A6217C
:102EC0004DF20D4002F020F800214DF20E4002F0CC
:102ED0001BF8E5214DF20F4002F016F801214DF2EA
:102EE000104002F011F813214DF2114002F00CF8DD
:102EF00001214DF2124002F007F854214DF2134027
:102F000002F002F801214DF2144001F0FDFF822190
:102F10004DF2154001F0F8FF01214DF2164001F08D
:102F2000F3FFCA214DF2174001F0EEFF02214DF2EE
:102F3000184001F0E9FF00214DF2194001F0E4FFD3
:102F400002214DF21A4001F0DFFF01214DF21B403A
:102F500000E006E301F0D8FF02214DF21C4001F031
:102F6000D3FF34214DF21D4001F0CEFF02214DF27E
:102F70001E4001F0C9FF67214DF21F4001F0C4FF60
:102F800002214DF2204001F0BFFF84214DF221408B
:102F900001F0BAFF02214DF2224001F0B5FFA42159
:102FA0004DF2234001F0B0FF02214DF2244001F028
:102FB000ABFFB7214DF2254001F0A6FF02214DF2F3
:102FC000264001F0A1FFCF214DF2274001F09CFFE8
:102FD00002214DF2284001F097FFDE214DF22940F9
:102FE00001F092FF02214DF22A4001F08DFFF22103
:102FF0004DF22B4001F088FF02214DF22C4001F0F0
:1030000083FFFE214DF22D4001F07EFF03214DF2A2
:103010002E4001F079FF10214DF22F4001F074FF96
:1030200003214DF2304001F06FFF33214DF231406A
:1030300001F06AFF03214DF2324001F065FF6D217E
:103040004DF2334001F060FF00214FF4554001F094
:103050005BFF33214DF2015001F056FF00214DF28C
:10306000025001F051FF34214DF2035001F04CFFAA
:1030700000214DF2045001F047FF3A214DF2055076
:1030800001F042FF00214DF2065001F03DFF4A21C0
:103090004DF2075001F038FF00214DF2085001F0C9
:1030A00033FF5C214DF2095001F02EFF00214DF25B
:1030B0000A5001F029FF81214DF20B5001F024FF4D
:1030C00000214DF20C5001F01FFFA6214DF20D50D2
:1030D00001F01AFF00214DF20E5001F015FFE5211D
:1030E0004DF20F5001F010FF01214DF2105001F090
:1030F0000BFF13214DF2115001F006FF01214DF29B
:10310000125001F001FF54214DF2135001F0FCFE6A
:1031100001214DF2145001F0F7FE82214DF21550BD
:1031200001F0F2FE01214DF2165001F0EDFECA2130
:103130004DF2175001F0E8FE02214DF2185001F057
:10314000E3FE00214DF2195001F0DEFE02214DF2A6
:103150001A5001F0D9FE01214DF21B5001F0D4FEAE
:1031600002214DF21C5001F0CFFE34214DF21D50D2
:1031700001F0CAFE02214DF21E5001F0C5FE67218A
:103180004DF21F5001F0C0FE02214DF2205001F01F
:10319000BBFE84214DF2215001F0B6FE02214DF21A
:1031A000225001F0B1FEA4214DF2235001F0ACFEFB
:1031B00002214DF2245001F0A7FEB7214DF2255017
:1031C00001F0A2FE02214DF2265001F09DFECF211A
:1031D0004DF2275001F098FE02214DF2285001F0E7
:1031E00093FEDE214DF2295001F08EFE02214DF2B8
:1031F0002A5001F089FEF2214DF22B5001F084FE9D
:1032000002214DF22C5001F07FFEFE214DF22D5097
:1032100001F07AFE03214DF22E5001F075FE1021CF
:103220004DF22F5001F070FE03214DF2305001F0AD
:103230006BFE33214DF2315001F066FE03214DF259
:10324000325001F061FE6D214DF2335001F05CFE11
:1032500000214FF4564001F057FE33214DF201603A
:1032600001F052FE00214DF2026001F04DFE3421CA
:103270004DF2036001F048FE00214DF2046001F0C0
:1032800043FE3A214DF2056001F03EFE00214DF271
:10329000066001F039FE4A214DF2076001F034FE6C
:1032A00000214DF2086001F02FFE5C214DF2096013
:1032B00001F02AFE00214DF20A6001F025FE812175
:1032C0004DF20B6001F020FE00214DF20C6001F088
:1032D0001BFEA6214DF20D6001F016FE00214DF2FD
:1032E0000E6001F011FEE5214DF20F6001F00CFEC1
:1032F00001214DF2106001F007FE13214DF2116023
:1033000001F002FE01214DF2126001F0FDFD542199
:103310004DF2136001F0F8FD01214DF2146001F04F
:10332000F3FD82214DF2156001F0EEFD01214DF219
:10333000166001F0E9FDCA214DF2176001F0E4FDCD
:1033400002214DF2186001F0DFFD00214DF21960FD
:1033500001F0DAFD02214DF21A6001F0D5FD0121E4
:103360004DF21B6001F0D0FD02214DF21C6001F016
:10337000CBFD34214DF21D6001F0C6FD02214DF25E
:103380001E6001F0C1FD67214DF21F6001F0BCFD20
:1033900002214DF2206001F0B7FD84214DF2216041
:1033A00001F0B2FD02214DF2226001F0ADFDA42139
:1033B0004DF2236001F0A8FD02214DF2246001F0DE
:1033C000A3FDB7214DF2256001F09EFD02214DF2D3
:1033D000266001F099FDCF214DF2276001F094FDA8
:1033E00002214DF2286001F08FFDDE214DF22960AF
:1033F00001F08AFD02214DF22A6001F085FDF221E3
:103400004DF22B6001F080FD02214DF22C6001F0A5
:103410007BFDFE214DF22D6001F076FD03214DF282
:103420002E6001F071FD10214DF22F6001F06CFD56
:1034300003214DF2306001F067FD33214DF2316020
:1034400001F062FD03214DF2326001F05DFD6D215E
:103450004DF2336001F058FD55214FF4704001F0FA
:1034600053FDAA214FF2010001F04EFD52214FF20F
:10347000020001F049FD08214FF2030001F044FD74
:1034800000214FF2040001F03FFDCC214FF4314008
:1034900001F03AFD00214BF2011001F035FD05214C
:1034A0004FF4364001F030FD70214FF4374001F009
:1034B0002BFD70214BF2017001F026FD01214FF42C
:1034C000384001F021FD03214BF6010001F01CFD05
:1034D00003214BF6020001F017FD03214BF6030018
:1034E00001F012FD02214FF43C4001F00DFD0021DE
:1034F0004BF6014001F008FD00214BF6024001F0BF
:1035000003FDD0214FF4494001F0FEFC02214CF6AE
:10351000011001F0F9FC50214CF6021001F0F4FC0E
:1035200050214CF6031001F0EFFC50214CF6041032
:1035300001F0EAFC00214FF4545001F0E5FC552164
:103540004FF4685001F0E0FC4FF4885001F0CCFCDF
:10355000782002F097FE4FF4245001F0C5FC01F0F2
:103560005BB9FE48808849F2253188427ED147F612
:10357000F001E52001F0C8FC4FF48071012001F05A
:10358000C3FC4FF4E061022001F0BEFC41F23001C7
:10359000032001F0B9FC0021042001F0B5FC40F249
:1035A0000221082001F0B0FC0021092001F0ACFC50
:1035B00000210A2001F0A8FC00210C2001F0A4FC4D
:1035C00000210D2001F0A0FC00210F2001F09CFC47
:1035D0000021102001F098FC0721112001F094FC3B
:1035E0000021122001F090FC0021132001F08CFC3E
:1035F0000021072001F088FC41F29061102001F0C9
:1036000083FC40F22721112001F07EFC9D21122035
:1036100001F07AFC4FF4C851132001F075FC25210C
:10362000292001F071FC0D212B2001F06DFC0721F8
:10363000302001F069FC40F20331312001F064FCDC
:103640000321322001F060FC40F20621352001F018
:103650005BFC0821362001F057FC40F20641372080
:1036600001F052FC4FF44171382000E057E001F0C6
:103670004BFC0721392001F047FC40F202613C205D
:1036800001F042FC08213D2001F03EFC00215020C9
:1036900001F03AFCEF21512001F036FC00215220CC
:1036A00001F032FC40F23F11532001F02DFC4FF4A9
:1036B0002741602001F028FC0121612001F024FC59
:1036C00000216A2001F020FC0021802001F01CFC78
:1036D0000021812001F018FC0021822001F014FC5F
:1036E0000021832001F010FC0021842001F00CFC5B
:1036F0000021852001F008FC1021902001F004FC3D
:103700004FF4C061922001F0FFFB40F2331107201B
:1037100001F0FAFB2221002001F0F6FB1FE78F48A1
:10372000808849F2283188427ED141F28F01EC2015
:1037300001F0EAFB41F23421EF2001F0E5FB4FF408
:103740008071012001F0E0FB4FF4E061022001F004
:10375000DBFB41F23001032001F0D6FB0021042005
:1037600001F0D2FB40F20221082001F0CDFB002144
:10377000092001F0C9FB00210A2001F0C5FB01214D
:103780000C2001F0C1FB00210D2001F0BDFB002148
:103790000F2001F0B9FB0021102001F0B5FB07213B
:1037A000112001F0B1FB0021122001F0ADFB00213E
:1037B000132001F0A9FB0121072001F0A5FB322015
:1037C00002F03AFD41F29041102001F09DFB40F2E1
:1037D0002721112001F098FB322002F02DFD8A21D3
:1037E000122001F091FB322002F026FD4FF4D0515F
:1037F000132001F089FB0621292001F085FB0D2112
:103800002B2001F081FB322002F016FD0021202048
:1038100001F07AFB0021212001F076FB322002F03A
:103820000BFD0021302000E074E001F06DFB40F260
:103830000461312001F068FB40F20531322001F0D3
:1038400063FB0021352001F05FFB40F60941362083
:1038500001F05AFB4FF40171372001F055FB40F2A3
:103860000131382001F050FB40F20771392001F09E
:103870004BFB00213C2001F047FB40F60A213D2094
:1038800001F042FB322002F0D7FC0021502001F071
:103890003BFBEF21512001F037FB0021522001F0CA
:1038A00033FB40F23F11532001F02EFB4FF4274130
:1038B000602001F029FB0121612001F025FB00219E
:1038C0006A2001F021FB0021802001F01DFB002176
:1038D000812001F019FB0021822001F015FB00215D
:1038E000832001F011FB0021842001F00DFB002159
:1038F000852001F009FB1021902001F005FB4FF419
:10390000C061922001F000FB40F23311072001F06A
:10391000FBFA24E61148808849F2203188427DD1A3
:103920000021084601F0F0FA4FF48071012001F007
:10393000EBFA4FF4E061022001F0E6FA41F23001C7
:10394000032001F0E1FA0021042001F0DDFA40F249
:103950000221082001F0D8FA002101E0D401002062
:10396000092001F0D1FA00210A2001F0CDFA01214D
:103970000C2001F0C9FA00210D2001F0C5FA002148
:103980000F2001F0C1FA322002F056FC40F2011182
:10399000072001F0B9FA322002F04EFC4FF48651B4
:1039A000102001F0B1FA0721112001F0ADFA4FF417
:1039B0008871122001F0A8FA4FF43061132001F051
:1039C000A3FA0021292001F09FFA44F210012B20D4
:1039D00001F09AFA0021502001F096FAEF215120CF
:1039E00001F092FA0021522001F08EFA40F23F11CC
:1039F000532001F089FA4FF41C51602001F084FA41
:103A00000121612001F080FA00216A2001F07CFA96
:103A10000021802001F078FA002100E031E08120CF
:103A200001F072FA0021822001F06EFA0021832059
:103A300001F06AFA0021842001F066FA0021852055
:103A400001F062FA1021902001F05EFA002192202C
:103A500001F05AFA0121932001F056FA4FF48871CF
:103A6000952001F051FA0021972001F04DFA002134
:103A7000982001F049FA40F27311072001F044FA4E
:103A80006DE5FE48808849F2313188427DD141F2AE
:103A90001401E72001F038FA4FF48071012001F0A1
:103AA00033FA4FF40071022001F02EFA41F238018E
:103AB000032001F029FA40F20221082001F024FA43
:103AC0000021092001F020FA00210A2001F01CFA4F
:103AD00000210C2001F018FA00210D2001F014FA49
:103AE00000210F2001F010FA0021102001F00CFA43
:103AF0000721112001F008FA0021122001F004FA38
:103B00000021132001F000FAC82002F095FB41F2D9
:103B10009061102001F0F8F940F22721112001F006
:103B2000F3F9322002F088FB0C21122001F0ECF9AD
:103B3000322002F081FB4FF40061132001F0E4F920
:103B40001121292001F0E0F90B212B2001F0DCF9F3
:103B5000322002F071FB0021202001F0D5F940F263
:103B60003F11212001F0D0F90021302001F0CCF9E3
:103B70004FF48371312001F0C7F90021322001F0A8
:103B8000C3F94FF40171352000E064E001F0BCF9A5
:103B900041F20A61362001F0B7F940F2077137208F
:103BA00001F0B2F94FF48371382001F0ADF940F221
:103BB0000771392001F0A8F940F202413C2001F0E0
:103BC000A3F940F60F413D2001F09EF9002150205D
:103BD00001F09AF9EF21512001F096F900215220CD
:103BE00001F092F940F23F11532001F08DF94FF4AA
:103BF0001C51602001F088F90121612001F084F955
:103C000000216A2001F080F90021802001F07CF978
:103C10000021812001F078F90021822001F074F95F
:103C20000021832001F070F90021842001F06CF95B
:103C30000021852001F068F91021902001F064F93D
:103C40004FF4C061922001F05FF940F23311072078
:103C500001F05AF983E48948808845F20841884296
:103C60007ED14FF48071012001F04EF94FF4E061F4
:103C7000022001F049F941F23001032001F044F93A
:103C80000021042001F040F940F20721082001F052
:103C90003BF90021092001F037F900210A2001F049
:103CA00033F900210C2001F02FF900210D2001F043
:103CB0002BF900210F2001F027F9142002F0BCFAA3
:103CC00041F2B061102001F01FF90121112001F033
:103CD0001BF90121172001F017F94FF49C711220F4
:103CE00001F012F94FF40061132001F00DF90921E0
:103CF000292001F009F909212A2001F005F9002104
:103D0000A42001F001F90021502001F0FDF8EF217D
:103D1000512001F0F9F80021522001F0F5F840F2AD
:103D20003F11532001F0F0F84FF41C51602001F0D6
:103D3000EBF80121612001F0E7F800216A2001F091
:103D4000E3F80021802001F0DFF80021812001F05C
:103D5000DBF80021822001F0D7F80021832000E069
:103D600023E001F0D1F80021842001F0CDF80021FA
:103D7000852001F0C9F81321902001F0C5F8002139
:103D8000922001F0C1F80321932001F0BDF84FF417
:103D90008871952001F0B8F840F27311072001F006
:103DA000B3F8322002F048FAB8E43448808841F28F
:103DB000055188427ED10021072001F0A5F832206C
:103DC00002F03AFA4FF48E71122001F09DF80121B1
:103DD000A42001F099F80F21082001F095F808219E
:103DE0000A2001F091F808210D2001F08DF840F231
:103DF0000771302001F088F80721312001F084F8A4
:103E000040F20361322001F07FF84FF4E06133208B
:103E100001F07AF840F20221342001F075F8022115
:103E2000352001F071F841F60F71362001F06CF881
:103E300040F20771372001F067F80021382001F0C7
:103E400063F80021392001F05FF840F207713A2051
:103E500001F05AF800213B2001F056F807213C20E0
:103E600001F052F800213D2001F04EF8322002F01E
:103E7000E3F90121072001F047F801E0D401002017
:103E80000121172001F040F8322002F0D5F94FF45B
:103E9000BD51102001F038F840F21721112001F037
:103EA00033F84FF48F71122001F02EF84FF4706147
:103EB000132000E097E001F027F800212A2001F00C
:103EC00023F80A21292001F01FF84FF49F711220D6
:103ED00001F01AF80021502001F016F8EF215120CE
:103EE00001F012F80021522001F00EF840F23F11CB
:103EF000532001F009F84FF41C51602001F004F840
:103F00000121612001F000F800216A2000F0FCFF8F
:103F10000021802000F0F8FF0021812000F0F4FF54
:103F20000021822000F0F0FF0021832000F0ECFF50
:103F30000021842000F0E8FF0021852000F0E4FF4C
:103F40001321902000F0E0FF4FF44071922000F028
:103F5000DBFF0521932000F0D7FF0021952000F022
:103F6000D3FF0021972000F0CFFF0021982000F020
:103F7000CBFF4FF48071012000F0C6FF4FF4E061E9
:103F8000022000F0C1FF41F23801032000F0BCFF25
:103F90000021042000F0B8FF00210C2000F0B4FF45
:103FA00000210F2000F0B0FF0021202000F0ACFF26
:103FB0000021212000F0A8FF2121072000F0A4FF0C
:103FC000142002F039F96121072000F09DFF142030
:103FD00002F032F940F27311072000F095FF14202F
:103FE00002F02AF995E4FE4880884BF20551884298
:103FF0007ED10021084600F087FF0021084600F02E
:1040000083FF0021084600F07FFF0021084600F0F2
:104010007BFF0121A42000F077FF142002F00CF9AF
:104020004FF41C51602000F06FFF40F20221082085
:1040300000F06AFF4FF40571302000F065FF43F295
:104040001571312000F060FF40F20461322000F071
:104050005BFF40F61661332000F056FF42F211215B
:10406000342000F051FF4FF4A851352000F04CFFF0
:1040700048F20751362000F047FF41F20741372050
:1040800000F042FF41F20341382000F03DFF2021C3
:10409000392000F039FF1A21902000F035FF00216F
:1040A000102000F031FF0721112000F02DFF00212A
:1040B000122000F029FF0021132000F025FF14201A
:1040C00002F0BAF84FF4E661102000F01DFF40F254
:1040D0003711112000F018FF142002F0ADF84FF452
:1040E000DC71122000F010FF142002F0A5F800E0AF
:1040F00083E04FF47061132000F006FF80212A2036
:1041000000F002FF4821292000F0FEFE142002F0FA
:1041100093F84FF48071012000F0F6FE4FF4E06157
:10412000022000F0F1FE41F23801032000F0ECFE25
:1041300040F20221082000F0E7FE00210A2000F0F2
:10414000E3FE00210C2000F0DFFE00210D2000F036
:10415000DBFE30210E2000F0D7FE0021502000F0C1
:10416000D3FEEF21512000F0CFFE0021522000F0BD
:10417000CBFE40F23F11532000F0C6FE4FF41C511D
:10418000602000F0C1FE0121612000F0BDFE002191
:104190006A2000F0B9FE1121902000F0B5FE4FF426
:1041A000C061922000F0B0FE40F20241932000F086
:1041B000ABFE0221942000F0A7FE142002F03CF890
:1041C0000121072000F0A0FE142002F035F8612143
:1041D000072000F099FE40F27311072000F094FED2
:1041E0000021202000F090FE0021212000F08CFE14
:1041F0002221002000F088FE0EE3794880884CF2EE
:10420000055188427ED10021084600F07DFE002144
:10421000084600F079FE142002F00EF8002108464E
:1042200000F072FE0021084600F06EFE00210846F4
:1042300000F06AFE0021084600F066FE0121A4207D
:1042400000F062FE142001F0F7FF4FF41C516020D3
:1042500000F05AFE40F60601082000F055FE40F23C
:104260000371302000F050FE0121312000F04CFE9F
:104270000421322000F048FE4FF48171332000F019
:1042800043FE4FF44071342000F03EFE40F2031133
:10429000352000F039FE1F21362000F035FE40F2B7
:1042A0000371372000F030FE0121382000F02CFE91
:1042B0000421392000F028FE1521902000F024FE72
:1042C0004FF48261102000F01FFE40F247211120C0
:1042D00000F01AFE4FF4DE71122000F015FE4FF4CC
:1042E0006061132000F010FE782001F0A5FF4FF46C
:1042F0008071012000F008FE4FF40071022000F0F0
:1043000003FE00E050E041F23001032000F0FCFD2C
:1043100008210A2000F0F8FD00210C2000F0F4FD37
:1043200020210E2000F0F0FD00210F2000F0ECFD18
:104330000021202000F0E8FD0021212000F0E4FD14
:104340003D212A2000F0E0FD142001F075FF2D2111
:10435000292000F0D9FD0021502000F0D5FD4DF2BC
:10436000EF01512000F0D0FD0021522000F0CCFDE3
:1043700040F23F11532000F0C7FD0021612000F002
:10438000C3FD00216A2000F0BFFD4FF44071922070
:1043900000F0BAFD0521932000F0B6FD4FF48071C6
:1043A000072000F0B1FD37E20D48808844F231511A
:1043B00088427CD10121002000F0A6FD0A2001F0F6
:1043C0003BFF41F22861102000F09EFD0E211220DB
:1043D00000F09AFD40F63921132000F095FD01E030
:1043E000D40100200A2001F027FF4021112000F015
:1043F0008BFD5021152000F087FD0A2001F01CFFE5
:104400001E21122000F080FD0A2001F015FF4FF45C
:10441000B151102000F078FD42F63921132000F050
:1044200073FD0A2001F008FF4FF48071012000F0B5
:104430006BFD4FF44071022000F066FD41F238013F
:10444000032000F061FD40F20221082000F05CFD35
:1044500008210A2000F058FD0021302000F054FD12
:1044600040F20241312000F04FFD4FF483713220C1
:1044700000F04AFD40F20351332000F045FD4FF4B7
:104480008271342000F040FD40F20131352000F00F
:104490003BFD40F20771362000F036FD40F2053159
:1044A000372000F031FD4FF40271382000E040E089
:1044B00000F02AFD40F60B71392000F025FD0221A5
:1044C000412000F021FD4FF41C51602000F01CFD44
:1044D0000121612000F018FD4FF40471902000F0DC
:1044E00013FD4FF48571922000F00EFD04219320FE
:1044F00000F00AFD4FF48071A02000F005FD0121BD
:10450000072000F001FD2121072000F0FDFC232100
:10451000072000F0F9FC3321072000F0F5FC40F201
:104520003311072000F0F0FC0021A02000F0ECFC8B
:1045300072E1BF48808844F2355188427ED13021F3
:10454000152000F0E1FC10219A2000F0DDFC202174
:10455000112000F0D9FC43F22841102000F0D4FCD7
:104560000221122000F0D0FC41F23801132000F0AB
:10457000CBFC282001F060FE1221084600F0C4FCAC
:10458000282001F059FE43F22041102000F0BCFC2D
:1045900043F23801132000F0B7FC462001F04CFE36
:1045A0000021302000F0B0FC40F20241312000F048
:1045B000ABFC40F20731322000F0A6FC4FF4417111
:1045C000332000F0A1FC0421342000F09DFC40F2D7
:1045D0000141352000F098FC40F20771362000F0D0
:1045E00093FC40F20531372000F08EFC4FF4C2619D
:1045F000382000F089FC4FF4C261392000F084FCBF
:104600004FF48071012000F07FFC4FF440710220D4
:1046100000F07AFC41F23001032000F075FC40F616
:104620000801082000F070FC08210A2000F06CFC52
:104630004FF41C51602000F067FC00E031E00121E4
:10464000612000F061FC4FF49F71902000F05CFC51
:104650004FF48071922000F057FC4FF4807193204A
:1046600000F052FC4FF44051A02000F04DFC10210E
:10467000A32000F049FC0121072000F045FC212186
:10468000072000F041FC2321072000F03DFC3321EE
:10469000072000F039FC40F23311072000F034FC11
:1046A000BAE06348808841F663118842F8D1E2207D
:1046B00000F01AFC232000F011FC022000F00EFC98
:1046C000042000F00BFC642001F0DCFDE02000F091
:1046D0000BFC012000F002FC0A2001F0ADFDE020FF
:1046E00000F002FC032000F0F9FB0C2001F0A4FD17
:1046F000012000F0F9FB0A2001F09EFDE62000F009
:10470000F3FB032000F0EAFBFF2000F0E7FBFF20B3
:1047100000F0E4FBB02000F0E7FB202000F0DEFB1F
:10472000002000F0DBFB032000F0D8FB40F21F303C
:1047300000F0D4FB012000F0D1FB40F2DF1000F0CC
:10474000CDFB002000F0CAFBB42000F0CDFB04201C
:1047500000F0C4FB40F21F4000F0C0FB002000F05E
:10476000BDFBD22000F0BAFB002000F0B7FB002018
:1047700000F0B4FB002000F0B1FB002000F0AEFB25
:10478000B62000F0B1FB022000F0A8FB4FF403704C
:1047900000F0A4FB002000F0A1FB222000F09EFB13
:1047A000092000F09BFB002000F098FB002000F0A7
:1047B00095FBF02000F098FB032000F08FFB2920F0
:1047C00000F092FBD02000F08FFB002000F086FB71
:1047D000BE2000F089FB052000F080FBFE2000F0E9
:1047E0007DFB012000F07AFBFF2000F077FB00202A
:1047F00000F074FBB82000F077FB0F2000F06EFB98
:10480000012000F06BFBBA2000F06EFB012000F0ED
:1048100065FB642000F026F80020FCF75BFA01201D
:10482000044908604FF6FF70FCF71EFA1FB000BD88
:10483000D40100208081214208B5034800880090FF
:10484000BDF8000008BD00000008006C10B504466B
:10485000204600F049FB052001F014FDFFF7ECFFB6
:1048600010BD00002DE9F0470446BE2000F03CFBDF
:10487000052000F033FB204605F07EFA07464FF096
:1048800066320C4B05F08CFA054605F031FA1FFA3A
:1048900080F9484600F022FB012000F01FFBFF20BA
:1048A00000F01CFB002000F019FB002000F016FBBC
:1048B000BDE8F0876666044070B504460023002614
:1048C000B748807901280BD1B548808846F60401A5
:1048D000884205D0B248808841F66311884208D1E9
:1048E000AF488079F0B9AE48808841F663118842BC
:1048F00018D1082C15D2DFE804F00406080A0C0EC3
:10490000101206240DE007240BE0042409E005241E
:1049100007E0012405E0002403E0032401E0022471
:1049200000BF00BF9E48808849F24131884217D0BD
:104930009B48808846F60401884211D098488088B8
:1049400045F2103188420BD09548808845F21051CD
:10495000884205D09248808841F6631188427DD113
:10496000082C1CD2DFE804F00406090C0F121518FD
:1049700000BF14E043F0800311E043F040030EE079
:1049800043F0C0030BE043F0200308E043F0600372
:1049900005E043F0A00302E043F0E00300BF00BFE6
:1049A0007F48808845F21051884202D14FF4585612
:1049B00000E036267A48808845F2103188420DD0D2
:1049C0007748808845F21051884207D07448808823
:1049D00041F66311884201D043F008037048808893
:1049E00046F60401884201D143F0020319463046DD
:1049F00000F08AFA6A48808841F6631188421DD027
:104A000003F0200068B166480088654949888842FB
:104A100014DA634805884088614908800846458063
:104A20000CE05F4800885E494988884206DD5C48A2
:104A3000058840885A49088008464580584880883B
:104A400045F21051884254D15549488900F04CFA3A
:104A5000002000F043FA5249498900E078E0491CFF
:104A600088B200F041FA002000F038FA4C49498938
:104A7000891C88B200F038FA49490988491EC1F3F7
:104A80000F2000F02BFA46494989C91C88B200F072
:104A90002BFA43490978491EC8B200F01FFA404971
:104AA000888900F021FA002000F018FA3C49898931
:104AB000491C88B200F018FA002000F00FFA3849BB
:104AC0008989891C88B200F00FFA35494988491E46
:104AD000C1F30F2000F002FA31498989C91C88B25C
:104AE00000F002FA2E498978491EC8B200F0F6F9A2
:104AF00055E02B49488900F0F7F9002000F0EEF965
:104B0000002000F0EBF926490988491EC1F30F2067
:104B100000F0E4F922490978491EC8B200F0DEF934
:104B20001F49888900F0E0F9002000F0D7F9002043
:104B300000F0D4F91A494988491EC1F30F2000F04A
:104B4000CDF917498978491EC8B200F0C7F926E0A7
:104B5000082C1CD2DFE804F004070A0D0F12151808
:104B600043F0300313E043F0100310E043F0200360
:104B70000DE000BF0BE043F0380308E043F02803EA
:104B800005E043F0180302E043F0080300BF00BF54
:104B9000032643F480531946304600F0B5F970BD42
:104BA000D401002010B503460C466748808849F2BE
:104BB0004131884205D06448808845F210318842EE
:104BC00014D16149488900F08FF9181200F086F974
:104BD000D8B200F083F95C49888900F085F9201289
:104BE00000F07CF9E0B200F079F9ABE0564880883B
:104BF00046F6040188421DD153488079012804D12A
:104C000051480088401EC01A83B24F49488900F0BD
:104C10006BF9181200F062F9D8B200F05FF94A4956
:104C2000888900F061F9201200F058F9E0B200F034
:104C300055F987E04448808841F66311884247D19E
:104C400041488079A8B940480088401EC01A83B204
:104C50003D49488900F048F9002000F03FF9002064
:104C600000F03CF9181200F039F9D8B200F036F92A
:104C700016E03549488900F037F9181200F02EF98E
:104C8000D8B200F02BF930490988491EC1F30F2032
:104C900000F024F92C490978491EC8B200F01EF929
:104CA0002949888900F020F9201200F017F9E0B2B4
:104CB00000F014F924494988491EC1F30F2000F07F
:104CC0000DF921498978491EC8B200F007F939E089
:104CD0001D48808845F21051884220D11A494889E0
:104CE00000F002F9181200F0F9F817494989491C37
:104CF00088B200F0F9F8D8B200F0F0F812498889CB
:104D000000F0F2F8201200F0E9F80F498989491CF7
:104D100088B200F0E9F8E0B200F0E0F812E00A48EA
:104D20008079012804D108480088401EC01A83B247
:104D300005494889194600F0E7F803498889214662
:104D400000F0E2F810BD0000D40100202DE9F84F7A
:104D500080460E4617461C46B3462046E31704EB32
:104D60005373DB1021464FEAE47C04EB5C7C4FEA92
:104D7000EC0CA4EBCC0CBCF1000F02D04FF0010CFA
:104D800001E04FF0000C6344224604EBD27C4FEA72
:104D90006C0C03FB0CF3DBB20093A7F12000C7B24D
:104DA000002556E00C2C07D107EB47002B4901EBFF
:104DB000800010F8059013E0102C05D1284800EB76
:104DC000071010F805900BE0182C07D107EBC7006F
:104DD000244901EB800010F8059001E0BDE8F88F50
:104DE0004FF0000A2FE009F0800030B11E48028821
:104DF00031464046FCF74EF807E00A9828B91B48B0
:104E0000028831464046FCF745F84FEA49604FEAD0
:104E10001069701C86B216484088B04200DCDDE79D
:104E2000A6EB0B00A0420AD15E4608F101001FFA72
:104E300080F80F480088404500DCCFE706E00AF123
:104E4000010000F0FF0ABAF1080FCCDB00BF681CBC
:104E5000C5B200988542A5DB00BFBFE756A8000891
:104E6000CAAC0008BAB200081400002016000020E6
:104E7000D40100202DE9F84704460D469046994696
:104E8000DDE9096704F0FF0A08EB04001FFA80F867
:104E900009EB05001FFA80F916E0444502DB544691
:104EA000A81985B24D4500DB14E0002000903A7847
:104EB000334629462046FFF749FF304606EBD071BE
:104EC00004EB61018CB27F1C38787E2802DC3878D4
:104ED0002028E2DA00BFBDE8F88700000149088019
:104EE000704700000008006C01490880704700000E
:104EF000FE07006C024800890249088070470000E4
:104F0000D4010020FE07006C024A1080921C118020
:104F100070470000FE07006C08B50121482000F032
:104F200071FB2020ADF8000010208DF80300032055
:104F30008DF8020069460948FBF79FFD20210748CC
:104F4000FBF770FE2020ADF8000069460448FBF72F
:104F500094FD20210248FBF765FE08BD000C0140CE
:104F6000001801402DE9F84F6B46022241216820CC
:104F700000F0F5F99DF801009DF8001040EA0120CD
:104F80000FFA80FA504604F0E0FE804600220B4BF8
:104F900004F056FD06460A4A0A4B04F0A9FC0446F2
:104FA00004F074FC83460849584605F0E1FA0446CB
:104FB00005F042FA00B2BDE8F88F000000407540ED
:104FC000A4703D0AD74342400000C84210B50020FB
:104FD0000E4908600E48006820F470400C490860D3
:104FE0000846006840F44050086000200949C1F8B4
:104FF000BC0100F011F801200449086000F00CF831
:1050000000200449C1F8B80110BD0000B881214258
:10501000040C01400080214210B5022001F032F959
:1050200010BD000008B50121082000F0EBFA4FF494
:105030004040ADF8000010208DF8030003208DF8EB
:10504000020069460448FBF718FD4FF4404102484E
:10505000FBF7E8FD08BD0000000C014010B5002082
:105060000E4908600E48006820F470400C49086042
:105070000846006840F44050086001200949C1F822
:10508000BC01FFF7C9FF012004490860FFF7C4FF16
:1050900000200449C1F8B80110BD0000B8812142C8
:1050A000040C01400080214270B5054600241648DA
:1050B000006820F47040144908600846006840F415
:1050C00000400860002614E0002010490860FFF747
:1050D000A3FF01200E49C1F8B8016006040E0B4879
:1050E0007C38006808B1601CC4B2FFF795FF701CE3
:1050F000C6B2082EE8DB15B9FFF7B0FF01E0FFF7F5
:1051000065FF204670BD0000040C0140B8812142BB
:105110000080214270B504461248006820F47040B7
:10512000104908600846006840F4405008600020BC
:105130000D490860002512E0E0090B49091D0860CF
:105140006006040E01200949C1F8B801FFF764FFA9
:10515000002005490860FFF75FFF681CC5B2082DF5
:10516000EADB70BD040C0140B8812142008021427D
:1051700010B50E48006820F470400C4908600846DD
:10518000006840F44050086001200949086009495E
:10519000C1F8B801FFF740FF002005490860FFF79C
:1051A0003BFF00200349C1F8B80110BD040C0140C9
:1051B000BC8121420080214210B50E48006820F4D5
:1051C00070400C4908600846006840F44050086090
:1051D0000020094908600949C1F8BC01FFF71CFF1C
:1051E0000120054908600549C1F8BC01FFF714FF1B
:1051F00010BD0000040C0140B88121420080214212
:1052000010B500241448006820F47040124908606A
:105210000846006840F40040086001200F4908601B
:10522000FFF7FAFE01200E49C1F8B801FFF7F4FEBE
:1052300007E0601CC4B2FA2C03DDFFF7BDFF0120BC
:1052400010BD0648803800680028F2D10349091FC4
:10525000086000BFF4E70000040C0140BC8121425B
:105260000080214238B50121084600F0CBF9012128
:10527000042000F0C7F92020ADF8000010208DF8C0
:10528000030003208DF8020069462348FBF7F5FB75
:1052900001212248FBF77CFC002021490860FFF730
:1052A000C1FE80216B2000F0DEF8642000F0C4FF16
:1052B00000216B2000F0D7F8032000F092F80020C6
:1052C00000F087F8322000F0B1F80021382000F01B
:1052D000CAF800216A2000F0C6F80021232000F05F
:1052E000C2F88021372000F0BEF8752000F01AF8CF
:1052F0000446682C0BD101216B2000F0B4F800218A
:105300006C2000F0B0F8322000F090F801E00120AD
:1053100038BD0020FCE7000000080140000230001A
:105320009401214270B50446FFF722FFD020FFF719
:10533000F1FEFFF765FF2046FFF7ECFEFFF760FF89
:10534000FFF716FFD120FFF7E5FEFFF759FF00201A
:10535000FFF7AAFE0546FFF72FFF284670BD2DE98F
:10536000F04106460F4614461D46FFF701FF002197
:1053700041EA4601C8B2FFF7CDFEFFF741FF20B179
:10538000FFF71AFF0120BDE8F0813846FFF7C2FEA3
:10539000FFF736FFFFF7ECFE012101EB4601C8B233
:1053A000FFF7B8FEFFF72CFF0DE0012C04D1002021
:1053B000FFF77AFE287003E00120FFF775FE2870E2
:1053C000601EC4B26D1C002CEFD1FFF7F5FE00206B
:1053D000D9E710B50446E006010E1C2000F043F8A2
:1053E00010BD10B50446E006010E1B2000F03BF88E
:1053F00010BD70B504460025BC2C01DB012510E072
:10540000622C01DB02250CE02A2C01DB032508E0DD
:10541000142C01DB042504E00A2C01DB052500E047
:10542000062529461A2000F01EF870BD70B5044606
:10543000B4F57A7F01DD4FF47A74042C00DA042489
:105440004FF47A7090FBF4F0401EC5B22946192043
:1054500000F009F80546264604EBD671C1F34F006B
:10546000FFF7C7FF70BD70B505460C46FFF780FE1D
:10547000D020FFF74FFEFFF7C3FE18B1FFF79CFEE9
:10548000012070BD2846FFF745FEFFF7B9FE204614
:10549000FFF740FEFFF7B4FE18B1FFF78DFE0120C5
:1054A000EFE7FFF789FE0020EBE72DE9F041054625
:1054B0000E4617469846FFF75BFE002141EA45017C
:1054C000C8B2FFF727FEFFF79BFE20B1FFF774FE7F
:1054D0000120BDE8F0813046FFF71CFEFFF790FE8B
:1054E00000240CE018F80400FFF714FEFFF788FE14
:1054F00018B1FFF761FE0120EBE7601CC4B2BC42AB
:10550000F0DBFFF759FE0020E3E700BFFEE770473E
:1055100070B5002100230F22C47804B3154C246811
:1055200004F4E064C4F5E064210AC1F10403CA4054
:10553000447804FA03F184781440214309010E4CA5
:105540000678A155047804F01F050124AC400578C5
:105550006D11AD0005F1E025C5F8004109E00478C2
:1055600004F01F050124AC40044D0678761145F87F
:10557000264070BD0CED00E000E400E080E100E0BA
:1055800002490143024A1160704700000000FA0519
:105590000CED00E008B50121802000F033F8FF2079
:1055A000ADF8000010208DF8030003208DF80200F4
:1055B00069460248FBF761FA08BD0000001C014083
:1055C0007047000029B1064A52690243044B5A61F0
:1055D00004E0034A52698243014B5A61704700005C
:1055E0000010024029B1064AD2690243044BDA6135
:1055F00004E0034AD2698243014BDA61704700003C
:105600000010024029B1064A92690243044B9A6194
:1056100004E0034A92698243014B9A61704700009B
:105620000010024030B500210022002400232D4D3F
:105630006D6805F00C0121B1042905D0082923D19A
:1056400005E0294D056022E0274D05601FE0254D4E
:105650006D6805F47012234D6D6805F480340225E1
:1056600005EB92421CB9214D554305600BE01D4DE1
:105670006D6805F400351DB11C4D5543056002E011
:10568000194D5543056002E0174D056000BF00BF8E
:10569000144D6D6805F0F0010909154D6B5C056846
:1056A000DD4045600F4D6D6805F4E061090A104D5D
:1056B0006B5C4568DD4085600A4D6D6805F460519E
:1056C000C90A0B4D6B5C4568DD40C560054D6D68D2
:1056D00005F44041890B074D6B5CC568B5FBF3F5DC
:1056E000056130BD0010024000127A0000093D0043
:1056F0005A0000206A000020704710B500F002F840
:1057000010BD00000CB500200190009033480068E7
:1057100040F480303149086000BF3048006800F430
:10572000003000900198401C0190009818B9019831
:10573000B0F5A06FF1D12948006800F4003010B135
:105740000120009001E0002000900098012843D142
:105750002348006840F010002149086008460068AE
:1057600020F0030008600846006840F0020008606E
:105770001A48406819494860084640684860084629
:10578000406840F4806048600846406820F47C101F
:1057900048600846406840F4E810486008460068E1
:1057A00040F08070086000BF0C48006800F0007096
:1057B0000028F9D00948406820F0030007494860F4
:1057C0000846406840F00200486000BF0348406857
:1057D00000F00C000828F9D10CBD000000100240B8
:1057E00000200240042808D14FF0E021096941F06F
:1057F00004014FF0E022116107E04FF0E021096958
:1058000021F004014FF0E022116170477047000061
:1058100010B51348006840F00100114908600846BF
:105820004068104908400E494860084600680E4923
:1058300008400B4908600846006820F48020086092
:105840000846406820F4FE0048604FF41F0088605E
:10585000FFF753FF4FF000600449086010BD0000DF
:10586000001002400000FFF8FFFFF6FE08ED00E028
:1058700070B504460D46012C06D0022C09D0032C2D
:105880000CD0042C14D10EE029460A4800F0B7FAD7
:105890000EE02946074800F0B4FA09E02946064818
:1058A00000F0B1FA04E02946034800F0AEFA00BF68
:1058B00000BF70BD000400400008004030B589B052
:1058C00005460C4601210820FFF79CFE01210846F1
:1058D000FFF798FE01212C48FBF75AF94FF480603E
:1058E000ADF8200018208DF8230003208DF8220049
:1058F00008A92648FBF7C1F84FF40060ADF8200076
:1059000018208DF8230003208DF8220008A91F48D5
:10591000FBF7B3F8ADF81850ADF814400020ADF81F
:105920001A00ADF8160005A94FF0804000F072FA99
:105930006020ADF804000120ADF806000020ADF8AD
:105940000A00ADF80C0001A94FF0804000F0B0F95A
:1059500001A94FF0804000F005FA0121880700F00E
:10596000BBF80821C80600F0F3F90821C80600F0CA
:1059700037FA0121880700F091F80121880700F02B
:105980009FF809B030BD000000021800000C014073
:1059900010B50121044800F0BAF818B101210248FD
:1059A00000F08BF810BD00000004004030B589B055
:1059B00005460C4601210420FFF724FE4020ADF8E7
:1059C000200018208DF8230003208DF8220008A95C
:1059D0002248FBF752F88020ADF8200018208DF8FF
:1059E000230003208DF8220008A91C48FBF745F886
:1059F000ADF81850ADF814400020ADF81A00ADF81D
:105A0000160005A9164800F005FA6020ADF804005C
:105A10000120ADF806000020ADF80A00ADF80C003A
:105A200001A90F4800F08EF801A90D4800F0E0F838
:105A300001210B4800F050F80821094800F0CEF889
:105A40000821074800F026F90121054800F026F852
:105A50000121034800F034F809B030BD00080140CE
:105A60000004004010B501210A4800F050F8012858
:105A70000AD10949086980470021064800F0C8F9A1
:105A80006421044800F0B9F90121024800F015F83A
:105A900010BD000000080040C400002021B10288B1
:105AA00042F08002028004E002884FF67F731A40C1
:105AB00002807047CA4302827047CA43028270471D
:105AC00021B1028842F00102028004E002884FF610
:105AD000FE731A400280704731B1B0F8442042F49E
